:020000040800F2
:1000000000000120C5020008CB020008CF02000852
:1000100041030008450300088D03000800000000AC
:10002000000000000000000000000000D5030008F0
:10003000D903000800000000DD030008ED1B0008E4
:10004000F1030008F1030008F1030008F1030008C0
:10005000F1030008F1030008F1030008F1030008B0
:10006000F1030008F1030008F1030008F1030008A0
:10007000F1030008F1030008F1030008F103000890
:10008000F1030008F1030008F1030008000000007C
:100090000000000000000000000000003D0F00080C
:1000A000F11E0008011F0008111F0008211F000891
:1000B0002B1F0008351F00083F1F0008F103000830
:1000C000F1030008F1030008F1030008F103000840
:1000D000F1030008F1030008F1030008000000002C
:1000E000F1030008F1030008F1030008000000001C
:1000F000000000000000000000000000F103000804
:1001000000000000F1030008491F0008F103000887
:1001100000000000000000000000000000000000DF
:10012000F1030008F1030008F1030008F1030008DF
:10013000F1030008000000000000000000000000C3
:10014000000000000000000000000000F1030008B3
:10015000F1030008F1030008F1030008F1030008AF
:10016000F1030008F1030008000000000000000097
:10017000000000000000000000000000000000007F
:1001800000000000F1030008000000000000000073
:10019000F103000800B583B000F0BAF9384B394AD2
:1001A0001360394A1360394900E02146384B9942BF
:1001B0000BD20A684B6801F10C0488689842F4D9A4
:1001C0001168196004330432F8E72E4B1A68314B7A
:1001D0009A4200D0FEE72C4B1A682F4B9A42F9D175
:1001E000274B2E4A13602E4A13602E4B05E0002049
:1001F000106004329342FAD80B462B4A934204D241
:10020000194651F8082B5B68F4E7244B1B6813B9B7
:10021000234B1B6803B1FEE700F086F9694601A88D
:1002200000F022F9214C224BE41AA4100025AC4224
:1002300014DC204C204BE41AA4100025AC4213DC43
:100240000099019803F0AEFF05461C4C1C4BE41AC4
:10025000A410002C0EDC284600F0E2F8144B53F8F2
:10026000253098470135E2E7134B53F8253098477E
:100270000135E3E7013C124B53F824309847E8E797
:10028000BABADECA0000002088000020F40300088B
:100290000C04000878563412325476988C000020F2
:1002A0001C0200200C0400081C0400081C040008A8
:1002B0001C0400081C0400081C0400081C0400089E
:1002C0001C04000808B5FFF765FF00BEFEE71EF03E
:1002D000040F0CBFEFF30880EFF309807146414A29
:1002E00010472DE9F04182B004468846124B5E6B00
:1002F0009F6B9D6A1B6B13F0020F03D00E4BDB6AE2
:10030000002B0CDB0D4800F0B7F8CDF800803B4621
:1003100032462946204600F00BF900BEFEE74BF6B8
:10032000AB6100F07FF90028ECD0034B4FF00042A6
:10033000DA6202B0BDE8F08100ED00E01450000880
:1003400000BEFEE71EF0040F0CBFEFF30880EFF3D2
:1003500009807146244A10472DE9F04182B00446D5
:100360008846084B5E6B9F6B9D6A074800F084F8D7
:10037000CDF800803B4632462946204600F0D8F8AA
:1003800000BEFEE700ED00E0245000081EF0040F60
:100390000CBFEFF30880EFF309807146134A104752
:1003A0002DE9F04182B004468846084B5E6B9F6B96
:1003B0009D6A074800F060F8CDF800803B46324661
:1003C0002946204600F0B4F800BEFEE700ED00E04C
:1003D0003050000800BEFEE700BEFEE700BEFEE7AC
:1003E00070470000E302000859030008A103000859
:0403F00000BEFEE766
:1003F400F4540008000000208C000020F45400088D
:1004040000000010000000108C00002020020020DA
:080414000000001000000010C0
:10042000FEE7000008B503460C4A12685AB10B4AB1
:100430001068033323F003030344094A934206D8A8
:10044000064A136008BD054A06491160EFE704F04B
:10045000DBF80C2303604FF0FF30F3E7900000203F
:1004600000FC00202002002001230360014B0B60F0
:10047000704700BF040000200FB400B583B004AB88
:1004800053F8042B01938021064804F0EFF800286C
:1004900003DD0146034800F037F803B05DF804EBD4
:1004A00004B07047980000202DE9F04385B0044661
:1004B0000F4643560BB10E461EE004252846214642
:1004C000ABBE0446384605B0BDE8F08314F9011B05
:1004D00004AA1A4402F8101C0133AB42F6D304AA52
:1004E0001344002203F8102C4FF00408E94640465C
:1004F0004946ABBE8046761B002EE3D03546102E13
:1005000028BF10250023E8E708B5FFF7CDFF08BD99
:1005100008B500F097F8024A024B9A6008BD00BF88
:100520000000000800ED00E008B500F0ABF808BDE1
:10053000F8B504460D4617461E462748FFF79CFFB0
:1005400021682648FFF798FF61682548FFF794FF68
:10055000A1682448FFF790FFE1682348FFF78CFF6C
:1005600021692248FFF788FF61692148FFF784FF6E
:10057000A1692048FFF780FFE1691F48FFF77CFF72
:100580001E48FFF779FF29461D48FFF775FF1D4CF0
:10059000E16A1D48FFF770FF216B1C48FFF76CFFF5
:1005A000E16B1B48FFF768FF15F0800F0AD115F4C7
:1005B000004F0CD11748FFF75FFF06991648FFF769
:1005C0005BFFF8BD39461548FFF756FFEFE73146A8
:1005D0001348FFF751FFEDE7F84E0008084F0008F9
:1005E000184F0008284F0008384F0008484F0008EF
:1005F000584F0008684F0008784F0008884F0008DF
:10060000944F000800ED00E0A44F0008B44F00082C
:10061000C44F0008F44F0008FC4F0008D44F0008F6
:10062000E44F000883691A888A4201D0002070478D
:100630000268033A012A03D802338361012070471C
:10064000002070470C4B1A6842F001021A6000212A
:1006500099601A6822F0847222F480321A60074A84
:100660005A601A6822F480221A60D960044B4FF055
:1006700000629A60704700BF0038024010300024CA
:1006800000ED00E0224B9B6803F00C03042B14D018
:10069000082B16D01BB11F4B1F4A1A6002E01D4BDE
:1006A0001D4A1A601A4B9B68C3F303131B4AD15CA3
:1006B000184A1368CB4013607047164B164A1A60ED
:1006C000F0E7134B5A685B6803F03F0312F4800FA6
:1006D00013D0114AB2FBF3F20D4B5B68C3F38813DE
:1006E00003FB02F30A4A5268C2F30142013252008C
:1006F000B3FBF2F3074A1360D4E7074AB2FBF3F205
:10070000034B5B68C3F3881303FB02F3EAE700BF04
:10071000003802400C0000200024F4004050000883
:100720008038054B1B7800FB03F0044BA3FB003023
:10073000C0098038C0B270472001002081808080CD
:1007400008B5114B1B68DB0E104AD05C104B1B78B0
:10075000012B0AD0FFF7E4FF00F020F90A4A1368E2
:100760000C4909680B44136008BD0B4B1B78FF2B29
:10077000F0D0F72B03D9084BFF221A70EAE70833B1
:10078000054A1370E6E700BF1C0100205050000826
:1007900018010020100000202001002010B584B0B6
:1007A0000024174B1C60174B1C70174B1C7000F07B
:1007B000BDF82146022000F09DFD1C2000F050FDF8
:1007C000ADF8044040F2CF7302938DF80C408DF8E1
:1007D0000D408DF80E408DF80F4001A9012001F069
:1007E000BFFA0A4A2146012001F04AFB21460120B6
:1007F00001F054FB2146012001F018FB04B010BDAC
:100800001C010020200100201801002041070008E1
:1008100010B50024064B1C70064B1C70012001F023
:10082000E8FA054B1C60802000F0B8F810BD00BF4E
:1008300018010020200100201C01002008B5002321
:10084000284A1360284A1370284B01221A700D2879
:1008500043D8DFE800F0070E12161A1E22262A2EB1
:1008600032363A3E224B234A1A60012001F0B3FA95
:1008700008BD1F4B204A1A60F7E71D4B1F4A1A603C
:10088000F3E71B4B1E4A1A60EFE7194B1D4A1A602B
:10089000EBE7174B1C4A1A60E7E7154B1B4A1A6037
:1008A000E3E7134B1A4A1A60DFE7114B194A1A6043
:1008B000DBE70F4B184A1A60D7E70D4B174A1A604F
:1008C000D3E70B4B164A1A60CFE7094B154A1A605B
:1008D000CBE7074B144A1A60C7E7054B054A1A6075
:1008E000C3E700BF1C0100202001002018010020E8
:1008F00010000020E1455F08A8A9650937548C0A5B
:1009000065E42C0B96438B0CE17A140E6EDDCD0F53
:10091000C28BBE105053CB126EA81815CAC85916F8
:100920002C871619C2F5281CDCBA9B1F10B582B0A3
:1009300001238DF8003000248DF801408DF802402D
:100940008DF803408DF804406A460821204600F0E7
:1009500045F96A460921204600F040F96A460A2115
:10096000204600F03BF96A460B21204600F036F99C
:100970006A460C21204600F031F96A460F21022018
:1009800000F02CF96A460D21022000F027F96A4692
:100990000E21022000F022F902B010BD10B504466D
:1009A00000F001020821002000F089F9C4F34002A0
:1009B0000921002000F083F9C4F380020A210020FD
:1009C00000F07DF9C4F3C0020B21002000F077F99C
:1009D000C4F300120C21002000F071F9C4F340129E
:1009E0000F21022000F06BF9C4F380120D210220C8
:1009F00000F065F9E2090E21022000F060F910BD57
:100A00000F2801D90020704701207047042803D91E
:100A1000072801D00020704701207047022801D923
:100A20000020704701207047012801D9002070473D
:100A30000120704738B504460D46FFF7E1FFC8B105
:100A40002846FFF7E3FFB8B1A20804F00304A400AE
:100A50000A4B53F822100F20A04021EA000143F86E
:100A6000221053F8221005FA04F40C4343F82240F4
:100A7000002000E0012038BD0120FCE708380140DB
:100A800038B505460C46FFF7BBFF58B32046FFF7C5
:100A9000C5FF48B30120A84014490A68C3431A405F
:100AA0000A60134A11680B401360012C0AD01CB174
:100AB000022C0DD0012016E00C4A13681843106078
:100AC000002010E00A4A13681843106000200AE072
:100AD000064A136803431360043213681843106016
:100AE000002000E0012038BD0120FCE7083C014067
:100AF0000C3C014038B505460C46FFF781FF98B124
:100B00002046FFF791FF88B1012303FA05F52CB1C8
:100B1000074A13681D431560002006E0054A136864
:100B20001D431560002000E0012038BD0120FCE7D6
:100B3000043C0140003C014010B50446FFF760FF53
:100B400028B10120A040034B1860002010BD0120F7
:100B5000FCE700BF143C0140D0B110B50446417819
:100B60000078FFF767FF08B1012010BDA178207859
:100B7000FFF786FF08B10120F7E72078FFF7DCFFD9
:100B800008B10120F1E7E1782078FFF7B3FFECE747
:100B900001207047032809D8DFE800F0020A0406A4
:100BA0000448704704487047044870470020704765
:100BB000034870470000024000080240001C024049
:100BC00000040240032801D900207047012070472B
:100BD0000F2801D90020704701207047002A66D0F5
:100BE00070B516460D460446FFF7ECFF002860D0AE
:100BF0002846FFF7EDFF00285DD02046FFF7CAFF2B
:100C00000346002859D06900006803228A40D24375
:100C100010401860186834788C4020431860707851
:100C200001281BD058680124AC4020EA0400586019
:100C30009868104098609868B4788C402043986019
:100C4000D8680240DA60DA68F07800FA01F11143FE
:100C5000D9603278022A07D000202BE0586801249E
:100C6000AC4020435860E3E7072D11D905F18041DE
:100C7000083989005A6A0F20884022EA00025A6225
:100C80005A6A307900FA01F111435962002011E0EB
:100C9000A900186A0F248C4020EA040018621A6A1E
:100CA000307900FA01F10A431A62002002E00120C3
:100CB0007047012070BD0120FCE70120FAE770B504
:100CC00005460C461646FFF77DFFB0B12046FFF7FC
:100CD0007FFFA0B12846FFF75DFF90B1012E06D03F
:100CE0001034012303FA04F48461002006E0012398
:100CF00003FA04F48461002000E0012070BD0120AB
:100D0000FCE70120FAE738B505460C46FFF75AFF25
:100D100088B12046FFF75CFF78B12846FFF73AFF1D
:100D200068B1036923FA04F414F0010F01D1002023
:100D300002E0012000E0002038BD0020FCE7002098
:100D4000FAE7884203D3904203D90020704700207D
:100D5000704701207047884203D2401A00F5803066
:100D60007047401A704700000023034A1370034A7B
:100D70001370034A136070473501002021010020E1
:100D800024010020F8B5664B1B7893B1022001F0D6
:100D900045F8044607210120FFF7B5FF0546614BE2
:100DA0001B7853B940B9604B1C605E4B01221A702E
:100DB00002E00720FFF7C0FEF8BD5B4E3168204619
:100DC000FFF7C9FF07463460564B1B78DBB2012B97
:100DD00037D0544B1B78DBB2022B42D0514B1B78DF
:100DE000DBB2032B54D04F4B1B78DBB2042BE3D187
:100DF000002D40F091804FF448724FF49671FFF748
:100E0000A0FF002857D0494A13780133DBB2137092
:100E1000464B1B78DBB21F2B7AD9454A1568E8B2DE
:100E200013681B0ADFB21168090CCEB21468240ED5
:100E30005FFA84FC80EA0702FF2A56D0FFF794FF8E
:100E4000BAE7012D0AD142F21C5242F23411FFF7E7
:100E500078FF18B1334B02221A70ADE7FFF784FF19
:100E6000AAE795B941F288324FF47A61FFF769FF3A
:100E700040B100232D4A13702D4A1360294B0322E1
:100E80001A7099E7FFF770FF96E7FFF76DFF93E79A
:100E9000012D0DD14FF448724FF49671FFF751FFB9
:100EA00018B1204B04221A7086E7FFF75DFF83E735
:100EB000FFF75AFF80E740F26C7240F21451384657
:100EC000FFF73FFF70B1194A1178C9B2012303FA45
:100ED00001F1174803680B43036013780133DBB259
:100EE000137095E7FFF740FF66E786EA0C06FF2ED2
:100EF000A4D11B0403F47F0343EA05630A0292B200
:100F0000134323430B4A13600B4B01221A7095E7DE
:100F1000044B03221A704FE7FFF726FF4CE700BF90
:100F20003401002035010020300100202101002083
:100F3000240100202C0100202801002008B5FFF723
:100F400021FF0720FFF7F8FD08BD00002DE9F04163
:100F500086B02E4E002434702D4B1C702D4B1C601F
:100F6000FFF702FF0121204600F0C4F90E21032003
:100F700000F0C0F90121022000F0BCF98DF810400A
:100F80008DF811408DF8124001258DF813508DF821
:100F9000144004AA07212846FFF720FE0F23ADF8CE
:100FA00000304FF6FF7301938DF808408DF809402B
:100FB0008DF80A408DF80B406946022000F0D0FE03
:100FC000022000F024FF022000F005FF4FF0070888
:100FD0008DF80C808DF80D5002278DF80E708DF86D
:100FE0000F4003A8FFF7B8FD4046FFF7A5FD172007
:100FF00000F050F9172000F033F9384600F00EFFEA
:10100000054B1860357006B0BDE8F0813401002052
:10101000280100202C010020300100200F4B1B78FC
:10102000ABB172B60E4B1B680C4A0021117062B650
:101030000C4A93420DD0A2F57F7293420BD002F27C
:10104000FD22934201D0002070470320704700200A
:101050007047012070470220704700BF2801002020
:101060002C010020BB44FF0008B5024600210846C1
:10107000FFF725FE012211460020FFF720FE002287
:1010800001211046FFF71BFE08BD38B505460024B8
:1010900009E0C4F10F0045FA00F000F00100FFF78D
:1010A000E3FF0134E4B20F2CF3D901220221002026
:1010B000FFF705FE002202211046FFF700FE38BDB3
:1010C000002304E0034A0021D1540133DBB2072B93
:1010D000F8D970473801002030B583B001258DF86C
:1010E000005000248DF801408DF802408DF8034037
:1010F0008DF804406A4621462046FFF76FFD6A4698
:1011000029462046FFF76AFD6A4602212046FFF77E
:1011100065FD224621462046FFF7D1FD224629469D
:101120002046FFF7CCFD224602212046FFF7C7FDEF
:10113000FFF7C6FF2046FFF7A8FF03B030BD000051
:1011400007280AD8072908D842B1012303FA01F178
:10115000C9B2064B1A5C11431954704701238B40E6
:10116000024A115C21EA0301115470473801002042
:1011700018B110B40446002305E07047E15C044A4E
:10118000D1540133DBB2072BF8D910BC704700BF34
:101190003801002010B50A4C227801239340DBB2BD
:1011A0000849885C43EA0020FFF76FFF237801338A
:1011B000DBB22370072B01D90022227010BD00BFC3
:1011C000360100203801002008B500F00300034B71
:1011D00003EBC000FFF7CCFF08BD00BF8050000844
:1011E00008B50248FFF7C4FF08BD00BF70500008F3
:1011F00008B50248FFF7BCFF08BD00BF78500008E3
:1012000070B50646FFF75CFF06F0070601360025BD
:1012100018E0C5F10704E4B2012211462046FFF7A9
:101220008FFF012203212046FFF78AFF01220521BB
:101230002046FFF785FF012207212046FFF780FFA8
:101240000135EDB2B542E4D370BD332801D9002099
:101250007047012070474009704700F01F00704739
:1012600038B50546FFF7F1FF88B12846FFF7F3FFD1
:1012700004462846FFF7F1FFA30003F1604303F59E
:101280006143012202FA00F01860002038BD0120FD
:10129000FCE7000038B50446FFF7D7FF70B12046E1
:1012A000FFF7D9FF05462046FFF7D7FF012303FAD2
:1012B00000F0034B43F82500002038BD0120FCE777
:1012C00080E200E0032809D8DFE800F0020A040603
:1012D000044870470448704704487047002070472E
:1012E00003487047303802404038024044380240DA
:1012F000343802401F290BD810B50C46FFF7E2FF27
:1013000040B103680121A14019430160002010BDD4
:10131000012070470120FAE7012808D018B10228FF
:1013200003D00020704703487047034870470348C4
:10133000704700BF00300140003C004000380040D2
:10134000022801D80120704700207047002900F0D2
:10135000D58038B50C460546FFF7F2FF002800F0AF
:1013600088802846FFF7D8FF0346002800F08180D8
:10137000028892B222F0400292B202802278012AC0
:101380000CD0028892B222F0040292B202806278FB
:10139000032A6ED8DFE802F0076E7782028842F0F7
:1013A00004020280F3E71A88C2F30E021A801A8838
:1013B00092B222F4806292B21A80A278012A76D088
:1013C0001A8892B222F0020292B21A80E278012ABE
:1013D00072D01A8892B222F0010292B21A801A8850
:1013E00092B222F0080292B21A801A8892B222F0C7
:1013F000100292B21A801A8892B222F0200292B29F
:101400001A801A88217942EAC1021A806279012A77
:1014100057D01A8892B222F4006292B21A80A2794E
:10142000012A53D01A8892B222F0800292B21A8016
:10143000E279012A4FD01A8892B222F4007292B255
:101440001A801A8892B222F4807292B21A80227A9A
:10145000012A49D01A8892B222F4005292B21A801C
:10146000627A012A45D09A8892B222F0100292B292
:101470009A8038BD1A88C2F30E021A801A8842F484
:1014800080621A8099E71A8842F400421A801A880A
:1014900092B222F4804292B21A808EE71A8842F405
:1014A00000421A801A8842F480421A8085E71A881E
:1014B00042F002021A8089E71A8842F001021A807B
:1014C0008DE71A8842F400621A80A8E71A8842F071
:1014D00080021A80ACE71A8842F400721A801A88D7
:1014E00042F480721A80B2E71A8842F400521A80DD
:1014F000B6E79A8842F010029A80BAE7704710B5B2
:101500000446FFF71DFF38B12046FFF705FF18B16D
:10151000038843F04003038010BD38B504460D46F0
:10152000FFF70EFF80B12046FFF7F6FE034668B1D5
:101530001A8912F0020FFBD09D811A8912F0010F57
:10154000FBD0988980B200E0002038BD0020FCE785
:1015500038B504460D46FFF7F3FE014640B120467C
:10156000FFF7DAFE30B1018989B2294101F00101AA
:10157000084638BD0021FBE708B5002204211046CB
:10158000FFF79DFB08BD08B5012203210020FFF7EE
:1015900096FB052000F0F8FA002203211046FFF721
:1015A0008EFB142000F0F0FA012203210020FFF747
:1015B00086FB782000F0E8FA08BD00B583B001236F
:1015C0008DF8003000238DF8013003228DF80220C1
:1015D0008DF803308DF804306A46FFF7FFFA03B048
:1015E0005DF804FB10B582B002238DF800300024B2
:1015F0008DF8014003238DF802308DF8034005215A
:101600008DF804106A462046FFF7E8FA6A4607217B
:101610002046FFF7E3FA02B010BD10B584B00123F5
:101620008DF8043000248DF805408DF806408DF8C3
:1016300007408DF808408DF809408DF80A408DF874
:101640000B308DF80C408DF80D4001A92046FFF7B6
:101650007DFE2046FFF753FF04B010BD08B50146DC
:101660000020FFF75AFF08BD10B5044600220621EE
:101670001046FFF724FB2046FFF7F0FF10BD10B522
:101680000446012206210020FFF719FB2046FFF740
:10169000E5FF10BDF8B507460D4616461C462A2044
:1016A000FFF7E2FF380AFFF7EAFFF8B2FFF7E7FFBC
:1016B000300AFFF7E4FFF0B2FFF7E1FF2B20FFF75E
:1016C000D3FF280AFFF7DBFFE8B2FFF7D8FF200AB5
:1016D000FFF7D5FFE0B2FFF7D2FF2C20FFF7C4FFE2
:1016E000F8BD08B507210020FFF732FF0028F9D127
:1016F00008BD08B5FFF7F5FF012204210020FFF720
:10170000DEFA08BD70B504460E461546FFF734FFF5
:101710002046FFF7A9FF002404E0305DFFF7AFFF8C
:101720000134E4B2AC42F8D3FFF7E3FF70BD000030
:101730000E4B1B88834203D90D4B1B888B4200D86C
:10174000704770B516460D460446FFF715FF2B4649
:10175000224629462046FFF79DFF300AFFF78FFFFC
:10176000F0B2FFF78CFFFFF7C4FF70BD160000203A
:10177000140000202DE9F843BDF820509AB3064626
:101780000F461C46914673B3184B1B8883422AD9D7
:10179000174A12888A4226D9191A894501DD1FFA8B
:1017A00081F9D31B9C4200DD9CB204FB09F8FFF7D2
:1017B000E3FE09EB060292B2E3199BB2013B013A48
:1017C0009BB292B239463046FFF764FF002444458D
:1017D00007D2280AFFF753FFE8B2FFF750FF0134A2
:1017E000F5E7FFF786FFBDE8F88300BF160000208D
:1017F0001400002000B583B0054B1B88054A1288F1
:10180000009000210846FFF7B5FF03B05DF804FB28
:1018100014000020160000202DE9F04F85B00021B3
:101820000846FFF767FD0C210320FFF763FD042145
:101830000020FFF7C2FE06210020FFF7BEFE0321B5
:101840000020FFF7BAFE012204210020FFF737FA3B
:10185000002206211046FFF732FA01220321002060
:10186000FFF72DFAFFF7BEFEFFF7D7FEFFF78BFE5F
:10187000002211460120FFF745FF962000F084F971
:10188000002211461120FFF73DFF782000F07CF97F
:101890004FF001098DF800902C278DF801702D264E
:1018A0008DF8026003226946B120FFF72BFF8DF807
:1018B00000908DF801708DF8026003226946B22015
:1018C000FFF720FF8DF800908DF801708DF8026011
:1018D0008DF803908DF804708DF805600622694636
:1018E000B320FFF70FFF4FF0070A8DF800A04A461C
:1018F0006946B420FFF706FFA2238DF800300225C9
:101900008DF8015084238DF8023003226946C020EF
:10191000FFF7F8FE4FF0C5088DF800804A4669468B
:10192000C120FFF7EFFE4FF00A038DF800300024CE
:101930008DF801402A466946C220FFF7E3FE4FF0CA
:101940008A0B8DF800B02A238DF801302A466946AB
:10195000C320FFF7D7FE8DF800B0EE238DF80130DD
:101960002A466946C420FFF7CDFE0E238DF80030CD
:101970004A4669464046FFF7C5FE224621462020DA
:10198000FFF7C0FE08238DF800304A46694636202E
:10199000FFF7B8FE05238DF800304A4669463A2025
:1019A000FFF7B0FE8DF800501C238DF801308DF844
:1019B00002A012238DF803304FF037038DF8043066
:1019C00032238DF805304FF029088DF806808DF808
:1019D00007608DF8088025238DF809302B238DF8BA
:1019E0000A3039238DF80B308DF80C408DF80D90AE
:1019F0004FF0030B8DF80EB04FF010098DF80F90DB
:101A00004A466946E020FFF77DFE8DF800B01D23B1
:101A10008DF801308DF802A006238DF803302E23B7
:101A20008DF804308DF805708DF806808DF807600C
:101A30008DF808308DF809304FF037038DF80A30F3
:101A40003F238DF80B308DF80C408DF80D408DF84C
:101A50000E508DF80F904A466946E120FFF752FE7E
:101A6000224621461320FFF74DFE0A2000F08CF895
:101A7000224621464046FFF745FE642000F084F8E8
:101A8000054B80221A80054BA0221A802046FFF7C2
:101A9000B1FE05B0BDE8F08F160000201400002054
:101AA000012801D0014870470148704780841E001A
:101AB0000024F400024A136843F0010313607047E6
:101AC00010E000E0014B00229A60704710E000E057
:101AD000044B1B6813F4803F01D1002070470120A4
:101AE000704700BF10E000E0002844D038B504463D
:101AF000234B1B6813F0040F0FD00120FFF7D0FF1A
:101B0000204A0023A4FB000102F0FEFB04460D4620
:101B100054EA050321D1012038BD0020FFF7C0FFA2
:101B2000EEE76FF07F42164B5A60FFF7CBFFFFF7EF
:101B3000C1FFFFF7CDFF0028FBD0114A136823F047
:101B4000010313604FF080720023AB4208BFA24232
:101B500013D214F17F4445F1FF3554EA050308D050
:101B60004FF080720023AB4208BFA242D9D3621E5D
:101B7000D9E70020D0E7002070470020CCE700BF65
:101B800010E000E040420F0058B3F8B503460646A7
:101B900000274401C50EE01A65EB07018B0043EAFC
:101BA00090738200941943EB0705EB0043EA5473EA
:101BB000E20014461D4654EA050310D0012D08BF6B
:101BC000002C08D34FF0FF30FFF78EFF58B90134D7
:101BD00045F1FF35EFE72046FFF786FF00E00020E4
:101BE000F8BD002070470120FAE7000008B5024B5D
:101BF0001B6803B1984708BD40010020072813D88F
:101C0000DFE800F0041406080A0C0E1009487047BB
:101C100009487047094870470948704709487047A4
:101C20000948704709487047002070474FF08040CE
:101C3000704700BF00000140000400400008004061
:101C4000000C0040004001400044014000480140B9
:101C5000072801D9002070470120704738B5054694
:101C6000FFF7CCFF002877D00446036913F0010F7B
:101C70000ED0C36813F0010F0AD0036923F00103EB
:101C8000036105EB4502D300344AD35803B19847AA
:101C9000236913F0020F0FD0E36813F0020F0BD08B
:101CA000236923F00203236105EB4503DA002B4B84
:101CB00013445B6803B19847236913F0040F0FD0F6
:101CC000E36813F0040F0BD0236923F004032361AE
:101CD00005EB4503DA00214B13449B6803B1984799
:101CE000236913F0080F0FD0E36813F0080F0BD02F
:101CF000236923F00803236105EB4503DA00174B42
:101D00001344DB6803B19847236913F0100F0FD019
:101D1000E36813F0100F0BD0236923F01003236145
:101D200005EB4503DA000D4B13441B6903B19847DB
:101D3000236913F0400F0FD0E36813F0400F0BD06E
:101D4000236923F04003236105EB4505EA00034BBB
:101D500013445B6903B1984738BD00BF44010020BC
:101D6000002937D038B50C460546FFF771FF50B350
:101D70002846FFF743FF024628B3036823F0010318
:101D80000360238883626368C362036823F01003DF
:101D9000217A012918D023F06003617A43EA4113C4
:101DA00023F44073A17A43EA012323F08003E17A0C
:101DB00001290CD01360002353620123536113697E
:101DC00023F00103136138BD43F01003E3E743F050
:101DD0008003EFE7704710B50446FFF739FF38B1CD
:101DE0002046FFF70BFF18B1036843F001030360BF
:101DF00010BD10B50446FFF72BFF38B12046FFF7A2
:101E0000FDFE18B1036823F00103036010BD08B59F
:101E1000FFF7F4FE08B10022426208BD08B5FFF7E3
:101E2000EDFE08B1406A08BD0020FCE710B50C4685
:101E3000FFF7E4FE50B1052C08D8DFE804F00308F2
:101E40000D12171CC26842F00102C26010BDC268C8
:101E500042F00202C260F9E7C26842F00402C260C6
:101E6000F4E7C26842F00802C260EFE7C26842F0DD
:101E70001002C260EAE7C26842F04002C260E5E7D1
:101E8000072808D8052906D800EB4000430019446C
:101E9000014B43F8212070474401002010B50C4647
:101EA000FFF7ACFE50B1052C08D8DFE804F00308BA
:101EB0000D12171C026922F00102026110BD0269B5
:101EC00022F002020261F9E7026922F004020261D3
:101ED000F4E7026922F008020261EFE7026922F0EA
:101EE00010020261EAE7026922F040020261E5E7BE
:101EF00008B50020FFF7B2FE0520FFF7AFFE08BDD2
:101F000008B50020FFF7AAFE0620FFF7A7FE08BDD0
:101F100008B50020FFF7A2FE0720FFF79FFE08BDCF
:101F200008B50020FFF79AFE08BD08B50120FFF7AD
:101F300095FE08BD08B50220FFF790FE08BD08B564
:101F40000320FFF78BFE08BD08B50420FFF786FECF
:101F500008BD202812D03E2812D0C0B2A0F1300314
:101F6000DBB2092B07D9A0F14103DBB2192B09D849
:101F70003538C0B270472E38C0B270470020704765
:101F8000012070470020704782B0019000E000BF40
:101F9000019B5A1E0192002BF9D102B0704700003C
:101FA000044B1868044943F2390201FB0020186011
:101FB000704700BF1C0000206D4EC64120B130B4F8
:101FC00082B00246002314E030230B7000234B70D4
:101FD00070471148A0FB0240C00800EB80056C0070
:101FE000121B303202AC1C4404F8082C0133DBB263
:101FF00082B2002AEDD108E0013BDBB202A818440E
:1020000010F9080C88540132D2B2002BF4D18B5451
:1020100002B030BC704700BFCDCCCCCC03E0435401
:102020000131C9B2013292F90030002BF7D10846D4
:102030007047002302E00133DBB2013090F9002049
:10204000002AF8D118467047002393420DD210B4ED
:1020500031F81340844206D00133DBB29342F7D308
:10206000002010BC70470120FBE7002070470000F3
:102070002DE9F84F0546894693461F460A9EDDF82E
:102080002C80694B1B7843B1022B02D02824A24636
:1020900005E03C244FF0500A01E01424A2466349B5
:1020A0000A78531CDBB20B70032B02D90B460021BC
:1020B000197052B3012A49D0022A65D0FFF770FF88
:1020C000B0FBFAF30AFB130A1FFA8AFA0AF1020AB2
:1020D0001FFA8AFAFFF764FFB0FBF4F304FB130363
:1020E0009BB202339BB21AFB03F22A80A9F800309C
:1020F0002F238BF80030A7F800A0FFF751FF00F066
:10210000030088F80000002581E0FFF749FF484CF4
:10211000A4FB00235B0903EB8303DA00831A01337A
:102120002B80FFF73DFFA4FB00235B0903EB830338
:10213000DA00831A0133A9F800302B238BF8003022
:102140002B88B9F8002013443B80D6E7FFF728FF1F
:10215000384BA3FB00231B09322202FB13030A3373
:102160002B80FFF71DFF2A88B0FBF2F302FB13035D
:102170000133A9F800302D238BF800302B88B9F8F3
:1021800000209B1A3B80B8E7FFF70AFFB0FBFAF389
:102190000AFB130302332B80FFF702FFB0FBF4F3BB
:1021A00004FB13030233A9F8003058238BF80030E6
:1021B0002B88B9F8002013FB02F33B809DE73B8896
:1021C000A3421DD91C1BA4B22A4631462046FFF764
:1021D0003BFF012817D1FFF7E3FE174BA3FB0023BA
:1021E000DB08C3EB0313C31A9CB20134A4B2FFF79C
:1021F000D7FE10F0010FE2D13B881C44A4B2E3E704
:102200001C44A4B2E0E726F815400135EDB2032DD9
:1022100007D898F80030AB42DDD13B8826F815305E
:10222000F3E7BDE8F88F00BF190000200B02002083
:10223000CDCCCCCC1F85EB5189888888094B1B7885
:1022400003B9704710B50446012206211046FEF777
:1022500036FD2046FFF798FE002206210120FEF7FA
:102260002EFD10BD2000002008B544F25060FFF79D
:10227000E5FF08BD08B50248FFF7E0FF08BD00BF55
:1022800070110100074B1B7803B9704710B5044665
:10229000002206210120FEF712FD2046FFF774FE02
:1022A00010BD00BF2000002008B547F23050FFF7F6
:1022B000C5FF42F6E060FFF7E5FF4CF25030FFF754
:1022C000BDFF08BD08B546F66050FFF7B7FF42F204
:1022D0001070FFF7D7FF4DF2D860FFF7AFFF08BDD2
:1022E00008B544F25060FFF7A9FF41F65830FFF7F8
:1022F000C9FF44F25060FFF7A1FF41F65830FFF7E5
:10230000C1FF4AF6C870FFF799FF41F65830FFF752
:10231000B9FF0248FFF792FF08BD00BF80380100F7
:1023200008B545F2F050FFF789FF42F22830FFF779
:10233000A9FF45F2F050FFF781FF42F22830FFF786
:10234000A1FF4CF25030FFF779FF08BD08B548F601
:10235000B800FFF773FF44F25060FFF793FF48F6B1
:10236000B800FFF76BFF08BD08B546F2A810FFF7ED
:1023700065FF4FF4FA50FFF785FF46F2A810FFF70C
:102380005DFF4FF4FA50FFF77DFF46F2A810FFF70C
:1023900055FF4FF4FA50FFF775FF0248FFF74EFF65
:1023A00008BD00BF8038010008B546F2A810FFF74D
:1023B00045FF4FF4FA50FFF765FF46F2A810FFF70C
:1023C0003DFF08BD10B5094C2046FFF737FF46F228
:1023D000A810FFF757FF2046FFF730FF46F2A8107E
:1023E000FFF750FF0248FFF729FF10BD80380100BA
:1023F000C0D401002DE9F0470646894617469A46A3
:10240000BDF820800D460BE0424629462046FFF7E6
:102410008FF90134A4B2F3199C42F5DB0135ADB25A
:1024200009EB0A039D4201DA3446F4E7BDE8F08780
:102430002DE9F04F83B0824689461F469DF83080D3
:102440001046FFF786FD8346002517E00134E4B20D
:10245000062C11D826FA04F313F0010FF6D01FFA58
:1024600088F204FB029105FB02A00097134689B293
:1024700080B2FFF7BFFFE9E70135EDB2042D06D8C2
:102480000BEB8B02034B13445E5D0024E0E703B0CB
:10249000BDE8F08F105300082DE9F04182B00446EA
:1024A000884615461F469DF820600BE000963B4687
:1024B00041462046FFF7BCFF06EB460253001C4492
:1024C000A4B2013595F90020002AEFD102B0BDE891
:1024D000F081000010B582B004461520FFF78AF99C
:1024E000012C0DD0022300934FF47843094A3C217C
:1024F0002320FFF7D1FF0848FFF746FD02B010BDCB
:10250000022300934FF4FC63044A3C211420FFF79C
:10251000C3FFF0E7D853000840420F00D053000833
:10252000F0B583B00446574B1B782BB1022B01D07A
:10253000554F02E0554F00E0554F564B1B78012B8D
:102540007BD0554E0020FFF755F9022300934FF63C
:102550002053524A08211C20FFF79EFF002C6ED109
:102560004F4A002C6DD14FF4FC63012100912821CA
:102570000620FFF791FF4B4B1B78012B64D04A4A92
:10258000012B63D04FF4784301210091282158207A
:10259000FFF782FF012C5CD0444A012C5BD04FF640
:1025A000FF73012500953E210620FFF775FF00957A
:1025B0004FF4FC633A463E215E20FFF76DFF022C8C
:1025C0004CD03B4A022C4BD04FF6FF7301250095AF
:1025D00054210620FFF760FF00954FF4FC6332465C
:1025E00054215E20FFF758FF032C3CD0314A032CC6
:1025F0003BD04FF6FF73012100916A210620FFF7BF
:102600004BFF042C34D02C4A042C33D04FF6FF73EC
:102610000121009180210620FFF73EFF052C2CD0E0
:10262000264A052C2BD04FF6FF73012100919621ED
:102630000620FFF731FF03B0F0BD214E82E7214AAB
:102640008FE74FF6FF7390E71F4A99E74FF4FC635B
:102650009AE71E4AA1E74FF4FC63A2E71C4AB1E7E0
:102660004FF4FC63B2E71B4AC1E74FF4FC63C2E7D7
:10267000194AC9E74FF4FC63CAE7184AD1E74FF497
:10268000FC63D2E71900002008520008005200083D
:10269000F85100080402002010520008B852000847
:1026A00018520008200000202C5200084052000858
:1026B0005C5200087852000898520008B052000896
:1026C0000C5200082052000828520008305200081E
:1026D000505200086852000888520008A8520008AA
:1026E00010B584B00020FFF785F8022300934FF463
:1026F000FC635D4A08210420FFF7CEFE5B4B1B788C
:10270000002B40F08F805A4A002B40F08D804FF410
:10271000FC630121009128210A20FFF7BDFE534BE5
:102720001B78012B00F08380524A012B00F081803E
:102730004FF6FF73012100913A210A20FFF7ACFE0A
:102740004A4B1B78022B77D04B4A022B76D04FF6A0
:10275000FF73012100914C210A20FFF79DFE434B9E
:102760001B78032B6DD0454A032B6CD04FF6FF73BB
:10277000012100915E210A20FFF78EFE3B4B1B7862
:10278000042B63D03E4A042B62D04FF6FF73012422
:10279000009470210A20FFF77FFE00944FF6FF732C
:1027A000384A88210820FFF777FE02A9364B1878AF
:1027B000FFF704FC00944FF4FC6302AA88212C204C
:1027C000FFF76AFE00944FF6FF73304A88214820D5
:1027D000FFF762FE2E4B1878FF283CD002A9FFF7C6
:1027E000EDFB012300934FF4FC6302AA88216C20C7
:1027F000FFF752FE012400944FF6FF73254A9421FF
:102800002420FFF749FE02A9234B1888FFF7D6FBC7
:1028100000944FF4FC6302AA94215220FFF73CFE7F
:1028200004B010BD1D4A6FE74FF6FF7371E71C4AF5
:102830007BE74FF4FC637DE71A4A86E74FF4FC63BD
:1028400087E7194A90E74FF4FC6391E7174A9AE744
:102850004FF620539BE700944FF4FC63144A882101
:102860006C20FFF719FEC5E7785100080D02002023
:102870000051000824510008385100085051000848
:102880006C51000884510008050200208C5100089A
:102890001800002098510008060200200C51000882
:1028A00018510008305100084051000860510008DC
:1028B00094510008F0B583B005460E4600245DE053
:1028C000424B1B7853B9424A53B94FF4FC63012180
:1028D000009139460A20FFF7DFFD4DE03D4AF3E75E
:1028E0004FF6FF73F3E7394B1B78012B0BD03A4AB5
:1028F000012B0AD04FF6FF730121009139460A20BF
:10290000FFF7CAFD38E0354AF2E74FF4FC63F3E71E
:102910002E4B1B78022B0BD0314A022B0AD04FF6DC
:10292000FF730121009139460A20FFF7B5FD23E02E
:102930002C4AF2E74FF4FC63F3E7244B1B78032B9C
:102940000BD0294A032B0AD04FF6FF7301210091C7
:1029500039460A20FFF7A0FD0EE0244AF2E74FF4C3
:10296000FC63F3E7224A29E04FF62053012100914E
:1029700039460A20FFF790FD0134E4B2042C22D836
:10298000AC4201D0B442F7D104EBC40253009FB271
:102990002837BFB2002000901023A0223946FFF74D
:1029A00029FD002C8CD0012C9DD0022CB0D0032C02
:1029B000C3D0064B1B78042BD4D00E4A042BD3D0A3
:1029C0004FF6FF73D2E703B0F0BD00BF0D02002049
:1029D000005100080C51000824510008185100084B
:1029E000385100083051000850510008405100088B
:1029F000605100086C5100082DE9F04182B0054695
:102A00000F461E462B2A08D02D2A16D0582A37D01A
:102A10002F2A47D002B0BDE8F08105300093102383
:102A2000032280B2FFF7E6FCB91D009603230D22B6
:102A300089B22846FFF7DEFCECE70631009303235A
:102A40000D2289B2FFF7D6FCE4E704EB07081FFA72
:102A500088F86019009603231A46414680B2FFF7B2
:102A6000C9FC281B80B20C30009603231A4641464D
:102A700080B2FFF7BFFC0134A4B20C2CE5D9C9E742
:102A80000024FAE7281B80B2E1190C3000960223DB
:102A90001A4689B280B2FFF7ADFC0134A4B20E2C05
:102AA000F0D9B7E70024FAE72DE9F04387B00C46E8
:102AB000904604A9FFF782FA02A92046FFF77EFAA2
:102AC00004A8FFF7B6FA814602A8FFF7B2FA054656
:102AD00009EB000202EB420293009CB23E34A4B226
:102AE0006D2C41D8C4F18004C4F34F070226009630
:102AF0004FF6FF7304AA34213846FFF7CDFC09EBEB
:102B0000490909FA06F39CB23C44A4B2A01D4FF651
:102B1000FF734246342180B2FFF76EFF1934A4B22E
:102B200000964FF6FF7302AA34212046FFF7B4FC4B
:102B300005EB450505FA06F39BB21C44A4B2A01DA3
:102B400000964FF6FF733D22342180B2FFF770FCF0
:102B5000173400964FF6FF733F223421A0B2FFF7DF
:102B600067FC07B0BDE8F0830827BFE72DE9F04711
:102B700082B006460D466B4B1B782BB1022B01D061
:102B8000694F02E0694F00E0694F6A4B1B78012BE7
:102B900003D0DFF8E081002495E0DFF8DC81FAE77C
:102BA000CDB9654ACDB94FF4FC6301210091494686
:102BB0000620FFF771FC614B1B78012B10D0604A97
:102BC000012B0FD04FF47843012100914946582042
:102BD000FFF762FC75E05B4AE4E74FF6FF73E4E75A
:102BE000594AEDE74FF4FC63EEE7012D16D0574A42
:102BF000012D15D04FF6FF734FF0010ACDF800A05C
:102C000049460620FFF748FCCDF800A04FF4FC63CE
:102C10003A4649465E20FFF73FFC52E04C4AE7E760
:102C20004FF4FC63E8E7022D16D04A4A022D15D076
:102C30004FF6FF734FF0010ACDF800A04946062079
:102C4000FFF72AFCCDF800A04FF4FC63424649464A
:102C50005E20FFF721FC34E03F4AE7E74FF4FC63D6
:102C6000E8E7032D0BD03D4A032D0AD04FF6FF7342
:102C70000121009149460620FFF70EFC21E0384A69
:102C8000F2E74FF4FC63F3E7042D0BD0354A042D33
:102C90000AD04FF6FF730121009149460620FFF745
:102CA000FBFB0EE0304AF2E74FF4FC63F3E72F4AF8
:102CB00030E04FF4FC630121009149460620FFF704
:102CC000EBFB0134E4B2052C29D8B44201D0AC426C
:102CD000F7D104EB840204EB420253001FFA83F99C
:102CE00009F128091FFA89F9002000901423A02275
:102CF0004946FFF77FFB002C3FF452AF012C3FF415
:102D000074AF022C8FD0032CABD0042CBCD0052D7B
:102D1000CDD0174A052DCCD04FF6FF73CBE702B0CC
:102D2000BDE8F08719000020085200080052000892
:102D3000F85100080402002018520008200000206A
:102D40002C52000820520008285200084052000867
:102D5000305200085C5200085052000878520008B7
:102D6000685200089852000888520008A8520008CB
:102D7000B0520008105200080C5200082DE9F04F24
:102D800085B080460F4693469A46BDF83830019389
:102D90009DF83C300393002637E0E919DDF80490F4
:102DA0004A4689B22046FEF7C3FC07EB0A0189B206
:102DB000491B89B201394A4689B22046FEF7B8FC60
:102DC0000134A4B208EB0B03B1469B1B9C42E4DB2D
:102DD000EC19A4B211E0019A21460298FEF7A8FC72
:102DE00008EB0B0080B2401B80B20138019A2146EB
:102DF00080B2FEF79DFC0134A4B207EB0A03A3EBFB
:102E000009039C42E7DB0136F6B2039B9E4206D2E1
:102E1000B5B205EB08039BB202931C46D2E705B09E
:102E2000BDE8F08F70B584B004460D461E4602A979
:102E30001046FFF7C3F8012E1FD04CF21863009321
:102E40001923322229462046FFF7D4FA01230193A1
:102E50004FF6FF7300931923322229462046FFF7CD
:102E60008DFF291DE01D022300930F2302AA89B2C2
:102E700080B2FFF711FB04B070BD4FF4FC63009308
:102E80001923322229462046FFF7B4FA022601967A
:102E90004FF6FF7300931923322229462046FFF78D
:102EA0006DFF291DE01D0096002302AA89B280B2A1
:102EB000FFF7F2FADFE700002DE9F0478AB081461C
:102EC0000F4690461C469DF848501520FEF792FC90
:102ED000022600964FF4FC63534A05210A20FFF7AF
:102EE000DBFA51238DF81C3020238DF81D3002A908
:102EF0009DF84C00FFF762F802AA314607A8FFF7D9
:102F00008DF8431C0AAA02442F2102F80C1C3044FD
:102F10000AAA52FA83F3382203F80C2C0AAB53FAAC
:102F200080F04FF0000A00F80CAC012600964FF636
:102F3000FF7307AA1C210520FFF7AEFA53238DF873
:102F4000103043238DF811304F238DF81230522367
:102F50008DF8133045238DF814303A238DF8153051
:102F600002A99DF85000FFF729F802AA062104A83B
:102F7000FFF754F80AAB184400F818AC00964FF667
:102F8000FF7304AA1C214B20FFF786FACDF800A09E
:102F90002623722228210720FFF72CFA032301930E
:102FA0004FF6205300932623722228210720FFF793
:102FB000E5FE424639464846FFF776FDB5FA85F309
:102FC0005B09228856210C20FFF72CFFB54214BF65
:102FD00000230123628856214220FFF723FF022DA0
:102FE00014BF00230123A2886C210C20FFF71AFFD5
:102FF000032D14BF00230123E2886C214220FFF738
:1030000011FF00964FF6FF73084A8A211920FFF737
:1030100043FA00964FF6FF73054A95211620FFF7F5
:103020003BFA0AB0BDE8F087A0510008AC51000897
:10303000BC510008F0B585B004460D4616469DF813
:103040002820012A20D0012B3FD04CF21863009396
:1030500016233022FFF7CEF9012301934FF6FF73B9
:1030600000931623302229462046FFF787FE691D6C
:1030700004F11400022300930F23224A89B280B284
:10308000FFF70AFA05B0F0BD4FF6FF730093162361
:103090003022FFF7AFF9022701974FF4FC6300934A
:1030A0001623302229462046FFF768FE03A9304642
:1030B000FEF784FF691D04F1140000970F2303AA93
:1030C00089B280B2FFF7E8F9DCE74FF4FC630093C4
:1030D00016233022FFF78EF9022601964FF6FF7372
:1030E00000931623302229462046FFF747FE691D2C
:1030F00004F1140000960023024A89B280B2FFF75F
:10310000CBF9BFE7CC5100082DE9F04184B0064669
:103110000D4690461F461520FEF76CFB02230093D8
:103120004FF4FC632F4A05211C20FFF7B5F9012459
:1031300000944FF6FF732C4A1D210520FFF7ACF9D0
:1031400003A94046FEF73AFF00944FF6FF7303AA27
:103150001D212F20FFF7A0F900944FF6FF73234A9B
:103160001D214C20FFF798F903A93846FEF726FFEA
:1031700000944FF6FF7303AA1D217620FFF78CF908
:10318000002413E04220630803EB4303D90089B213
:103190002F31174B1A5D2B5D0093B44214BF0023EF
:1031A000012389B2FFF746FF0134E4B2072C04D8AB
:1031B00014F0010FE6D10E20E5E7012400944FF64C
:1031C000FF730C4A91210E20FFF766F900944FF629
:1031D000FF73094A9B211620FFF75EF904B0BDE892
:1031E000F08100BFD0510008D8510008E05100081C
:1031F000C4520008AC510008E851000810B504465C
:10320000E1B20120FDF77FFD0028F9D010BD0000DC
:1032100010B50C46194B00221A70C9B2FDF773FDA8
:1032200040B3174B1B783BB3164B1B7853B11CB9FB
:10323000144B1B78012B10D0012C0AD0032C13D077
:10324000012018E0FDF7EAFE0028F0D00D4A1070CA
:10325000EDE70C4B1B78022BF0D10020094B1870C6
:10326000064B01221A7006E0064B1B78032BF4D0A4
:10327000012000E0002010BD0120FCE70902002031
:10328000080200200C02002010B582B00020FEF7DA
:10329000B1FA022400944FF4FC63144A162114205E
:1032A000FFF7FAF800944FF6FF73114A3E2104200D
:1032B000FFF7F2F8012400944FF620530D4A7021D5
:1032C0001620FFF7E9F800944FF6FF730A4A96219B
:1032D0000C20FFF7E1F803210120FFF799FF0028F8
:1032E000F9D10320FFF78AFF02B010BD585400083F
:1032F00078510008605400086854000830B585B063
:1033000005461520FEF776FA022400944FF4FC637C
:10331000164A1E210F20FFF7BFF802A92846FEF724
:103320004DFE052300934FF6FF7302AA4621372076
:10333000FFF7B2F800944FF6FF730D4A7D2123206A
:10334000FFF7AAF8012300934FF6FF73094A96216D
:103350001920FFF7A1F803210120FFF759FF0128E9
:10336000F9D00320FFF74AFF05B030BDE053000855
:10337000EC530008F853000810B584B00020FEF7A5
:1033800039FA022300934FF62053324A122108469D
:10339000FFF782F8012400944FF6FF732E4A412173
:1033A0000F20FFF779F802A92C4B1878FEF706FEDC
:1033B00000944FF4FC6302AA41215F20FFF76CF8F0
:1033C00000944FF6FF73264A5A210F20FFF764F846
:1033D000244B1878FF2834D002A9FEF7EFFD012313
:1033E00000934FF4FC6302AA5A215F20FFF754F8C0
:1033F000012400944FF6FF731B4A73210F20FFF73F
:103400004BF802A9194B1888FEF7D8FD00944FF429
:10341000FC6302AA73215F20FFF73EF800944FF689
:10342000FF73134A96210C20FFF736F80321012081
:10343000FFF7EEFE0028F9D10320FFF7DFFE04B00E
:1034400010BD00944FF4FC630A4A5A215F20FFF735
:1034500023F8CDE704540008845100080502002039
:10346000105400081800002098510008060200209F
:10347000685400089451000810B582B00020FEF78F
:10348000B9F9022400944FF47843254A23211920E6
:10349000FFF702F800944FF47843224A46211620A1
:1034A000FEF7FAFF012400944FF6FF731E4A7D21B8
:1034B0000820FEF7F1FF00944FF6FF731B4A91219D
:1034C0001820FEF7E9FF03210120FFF7A1FE0028E5
:1034D000F9D10320FFF792FE0024154B1C70154B09
:1034E000FF221A70144B1C80FEF7DEFE2046FEF70A
:1034F00081F9022400944FF4FC63104A3C211E2001
:10350000FEF7CAFF00944FF4FC630D4A5A211E20B7
:10351000FEF7C2FF0B48FEF737FD02B010BD00BF3B
:10352000D8500008E450000868540008EC50000827
:10353000050200201800002006020020A05200080A
:10354000F850000800350C0008B50E4B1B78012B15
:103550000BD001280CD002280DD003280ED000205B
:10356000FDF732FEFDF716FE08BDFDF7A9FDF9E7F0
:10357000FDF736FEF6E7FDF73BFEF3E70020FDF72B
:103580003FFEEFE704020020F0B58BB0FEF708FD28
:10359000C0F30140844B187000270126D1E00325B9
:1035A00068E00023BDF8182056210C20FFF73AFCF4
:1035B0006DE00023BDF81A2056214220FFF732FCAF
:1035C00065E00023BDF81C206C210C20FFF72AFCCD
:1035D0005DE00123BDF8182056210C20FFF722FCE6
:1035E00062E00123BDF81A2056214220FFF71AFCA1
:1035F0005AE00123BDF81C206C210C20FFF712FCBF
:1036000052E00023BDF8182056210C20FFF70AFCD9
:103610006BE00023BDF81A2056214220FFF702FC80
:1036200063E00023BDF81C206C210C20FFF7FAFB9F
:103630005BE00123BDF8182056210C20FFF7F2FBB8
:103640000120FFF7DBFD47F23050FEF79DFC2C46D2
:1036500003210120FFF7DCFD002864D00020FFF7E4
:1036600073FF00210120FFF7D3FD28BB002C96D06B
:10367000651EEDB2002C94D0012C9AD0022CA0D063
:103680000023BDF81E206C214220FFF7CBFB002D4C
:103690009FD0012DA5D0022DABD00123BDF81E2057
:1036A0006C214220FFF7BEFB0020FFF7A7FD47F289
:1036B0003050FEF769FC2C4601210846FFF7A8FDB3
:1036C00005460028C4D1631CDBB2032B00D81D467D
:1036D000002C96D0012C9CD0022CA2D00023BDF847
:1036E0001E206C214220FFF79DFB002DA1D0012D53
:1036F00009D0022D0FD00123BDF81E206C214220DD
:10370000FFF790FB9CE70123BDF81A2056214220C9
:10371000FFF788FB94E70123BDF81C206C210C20E7
:10372000FFF780FB8CE70320FFF768FD9DF827304B
:10373000A34223D0FEF79EFD0020FEF7CBFE01360C
:10374000F6B2082E22D80DF12703019306AD00959D
:1037500008AB0DF117020DF1220109A8FEF788FC54
:103760009DF91720BDF82210BDF82400029701969C
:10377000002400942B46FFF79FFB6FE70137FFB251
:10378000FEF7A0FD0120FEF7A5FED8E7074B1B784A
:10379000BB4204D33846FFF7B1FD0BB0F0BD034B7D
:1037A0001F70FEF79DFDF5E70B02002005020020CB
:1037B0002DE9F04F8BB0002408940994234622464B
:1037C00008A92046FFF7A0FC25462646A146274625
:1037D0001CE04FF007082AE042202CE042204FEA8C
:1037E000580303EB4303D90089B2BA4B13F80820FE
:1037F0002F310AAB434413F8083C0093012389B2EC
:10380000FFF718FC0020FFF7F9FC4446032D00F2F7
:1038100029810120FFF798FE00210120FFF7F8FC25
:10382000F0B9002CD5D004F1FF385FFA88F814F015
:10383000010FD1D10E20C4F3470303EB4303D9009A
:10384000A44B1A5D0AAB1C4414F8083C00930023F7
:103850002F31FFF7EFFB18F0010FBFD10E20BEE7AD
:1038600001210846FFF7D4FC8046B0BB631CDBB2E5
:10387000072B00D8984614F0010F2AD10E20C4F36C
:10388000470303EB4303D900924B1A5D0AAB1C4478
:1038900014F8083C009300232F31FFF7CBFB18F0FE
:1038A000010F18D10E20C8F3470303EB4303D900DF
:1038B000884B13F808200AAB434413F8083C0093E4
:1038C00001232F31FFF7B6FB0120FFF797FC444699
:1038D0009CE74220D3E74220E5E703210120FFF7E0
:1038E00097FC0390002891D10320FFF787FCA046A6
:1038F0000AAB234413F8083C012B87D0B9F1000F21
:103900001ED101220AAB234403F8082CFEF7ACFCBD
:1039100014F0010F12D10E20C4F3470303EB43034D
:10392000D9006C4B13F808204FF00109CDF8009036
:103930004B462F31FFF77EFB274667E74220EBE738
:103940004FF001090AAB234403F8089C4E44F6B239
:10395000152300930C2314221D212F20FEF74AFD6E
:1039600007A93046FEF72AFBCDF800904FF6FF730B
:1039700007AA1D212F20FEF78FFD14EA090B21D184
:103980000E20C4F3470303EB4303DA0002F12F03D5
:1039900019460493DFF83CA11AF80890012300931C
:1039A0004A46FFF747FB05971AF807A0D1450BD009
:1039B000FEF7CCFC484B1B782BB3022B20D04FF4E6
:1039C000487022E04220DCE70135EDB2FEF7A8FCAA
:1039D000152300930C230A221D217620FEF70AFDF1
:1039E00007A92846FEF7EAFA012300934FF6FF7372
:1039F00007AA1D217620FEF74FFDDDF80C9005E7A4
:103A00004FF4FA7001E04FF49660FEF7BDF8059BA5
:103A10000AAA1344002203F8082C0AAB984408F8B9
:103A2000082C17F0010F19D10E20C7F3470303EB41
:103A30004303D9000023009352462F31FFF7FAFACF
:103A4000BBF1000F0CD10E200023009301234A4646
:103A50000499FFF7EFFADDF80C90D7E64220E4E78F
:103A60004220F1E71D4B1B78B3422ED8FEF77CFCB9
:103A70001520FDF7BFFE022300934FF4FC63184AA4
:103A80002D211020FEF708FD012400944FF6FF734E
:103A9000144A50211420FEF7FFFC07A93046FEF718
:103AA0008DFA00944FF6FF7307AA50214820FEF7C5
:103AB000F3FC03210120FFF7ABFB0028F9D1032021
:103AC000FFF79CFB0BB0BDE8F08F044B1E70FEF7B8
:103AD00007FCCBE7C45200081900002018000020A2
:103AE000CC520008D85100082DE9F04FA7B00023B0
:103AF0000FE003EB43014A0092B2C2F13A0226A959
:103B000001EB430121F83C2C562221F8782C01339B
:103B10009BB2042BEDD90020FDF76CFE0226009627
:103B20004FF4FC63C24A04212220FEF7B5FC0124B5
:103B300000944FF6FF73BF4A1C210520FEF7ACFC32
:103B400005A90020FEF73AFA00944FF6FF7305AA84
:103B50001C213720FEF7A0FC01944FF6FF7500955D
:103B600066237C222A213046FFF708F900942B4671
:103B7000B14A96210E20FEF78FFC4FF6205300939A
:103B800006231A4644215E20FEF734FC00240FE091
:103B900026AB03EB440333F8781C33F83C0C4CF2AF
:103BA0001863009306231A46FEF724FC0134A4B2DE
:103BB000042C10D8002CEBD126AB03EB440333F8D4
:103BC000781C33F83C0C4FF4FC63009306231A4630
:103BD000FEF710FCEAE74FF0000801264546C34611
:103BE0000524442303935E2741E1354600E0032585
:103BF0000020FFF703FB631E26AA02EB430232F804
:103C00003C9C32F878AC9BB23CE00225F0E7012105
:103C10000846FFF7FDFA78B93DB1012D0AD0022D13
:103C200001D0054602E0032500E035460120FFF7FC
:103C3000E5FAE0E70225F9E703210120FFF7E8FABA
:103C40000028D8D10320FFF7D9FA7C4B1B885B45AD
:103C5000C0F02581B8F1010F00F0278127B0BDE841
:103C6000F08F5A1E26A901EB420131F83C0C0DF1F0
:103C7000980C0CEB430323F83C0C31F8781C23F828
:103C8000781C93B2002BECD18DB9BDF85C300633B3
:103C90009BB2ADF85C307B2B02D90423ADF85C30CD
:103CA000BDF85C30BB422AD00020012388E0022D01
:103CB00009D0012D13D0BDF820302C2B1BD8862322
:103CC000ADF82030ECE7BDF85C30042B03D8762348
:103CD000ADF85C30E4E7063BADF85C30E0E7BDF8FA
:103CE000203006339BB2ADF820308B2BD8D92C2353
:103CF000ADF82030D4E7063BADF82030D0E7BDF872
:103D00002030039A934201D00020CEE70BF1010B43
:103D10001FFA8BFBFEF748FB1D2C08D826AB03EBE4
:103D2000440323F83C9C23F878AC0134A4B2CBEBD9
:103D3000CB020532424BA3FB0213D11A03EB510312
:103D40001B0903EBC30103EB4103D31A03EB43034A
:103D50005A0097B20437BFB20BEB8B020332394BD8
:103D6000A3FB0213DB08C3EB0313D31A03EB4303D8
:103D70005A0093B22C339BB20393002300930C237D
:103D800019221C213720FEF735FB05AA114658469B
:103D9000FEF714F9012300934FF6FF7305AA1C21C7
:103DA0003720FEF779FB4FF62053009306231A467F
:103DB00003993846FEF71EFB304676E701339BB287
:103DC000A34213D2BDF85C1026AA02EB430232F8DC
:103DD0003C2C9142F2D1BDF8201026AA02EB4302FE
:103DE00032F8782C9142E9D1B0460026B8F1010FA3
:103DF0003FF42BAF98B1012C28D8BDF82010BDF8A6
:103E00005C004FF4FC63009306231A46FEF7F2FAB7
:103E10000D4B1B7843B3022B24D0B42025E00023A4
:103E2000009306231A4651464846FEF7E3FAE2E7B6
:103E300018540008205400082854000806020020E6
:103E4000CB6B28AF8988888819000020BDF8221024
:103E5000BDF85E004CF21863009306231A46FEF785
:103E6000C9FACAE7782000E0F020FDF78DFE002EA9
:103E70003FF4EBAE0220FFF767FB00210120FFF7C4
:103E8000C7F900287FF4C3AE002D3FF4B0AE032D78
:103E90003FF4BBAE022D3FF4A8AE0546A8E61D4B8D
:103EA000A3F800B0FEF71CFAD4E6FEF78BFA002068
:103EB000FDF7A0FC022500954FF47843164A202117
:103EC0001020FEF7E9FA012400944FF6FF73134A1D
:103ED0004E211220FEF7E0FA05A95846FEF76EF8CB
:103EE00000954FF4FC6305AA64213A20FEF7D4FA4A
:103EF00000944FF6FF730A4A96211020FEF7CCFA81
:103F000003210120FFF784F90028F9D10320FFF7EE
:103F100075F9A3E6060200203C540008E0530008AF
:103F20004854000870B590B002AC544D0FCD0FC48A
:103F30000FCD0FC40FCD0FC495E8030084E8030034
:103F40004F4B1B787BB30020FDF754FC01240094F9
:103F50004FF4FC634B4A0F211420FEF79DFA032314
:103F600000934FF6FF73484A37212D20FEF794FA4D
:103F700000944FF6FF73454A73210820FEF78CFA30
:103F800000944FF6FF73424A87210820FEF784FA17
:103F900000944FF6FF733F4A96210820FEF77CFA03
:103FA0000026344620E0FCF7F9FB354B01221A705D
:103FB000C9E7002400943723A0222D212046FEF7D4
:103FC00019FA10AB03EB850353F8382C0323009345
:103FD0004FF6FF7337212D20FEF75EFA2046FFF7DC
:103FE0000DF9FEF741F92C46002E44D10320FFF7CE
:103FF000ABFA00210120FFF70BF9054628B9631C35
:10400000DBB20D2BD5D81D46D3E703210120FFF7E6
:10401000FFF80028E8D1204B1B78012B10D11E4B54
:1040200000221A701D4B1B78012B05D0FA20FDF7DA
:10403000ABFDFCF7EDFBD7E72046FCF7FFFBF5E710
:10404000164B1B78012B12D0002503210120FCF711
:104050005AFE20B90135124B9D42F6D90126FCF7D4
:10406000D7FB002EC0D10320FFF7C8F8BCE72046DD
:10407000FCF7E4FBE8E710B070BD00BFA0500008FB
:104080000A020020D852000878540008E4520008C0
:10409000F452000804530008090200202000002008
:1040A0005FE3160070B50020FEF73AFA00263446AA
:1040B0000AE005250020FFF7A1F8FEF7D5F829460C
:1040C0002046FEF753FD2C46002E63D1FDF762F823
:1040D00000210120FFF79CF820B9002CE9D0651ED3
:1040E000EDB2E7E701210846FFF792F8054678B9F7
:1040F000631CDBB2052B00D81D460120FFF77EF8BC
:10410000FEF7B2F829462046FEF730FD2C46DBE7E5
:1041100003210120FFF77CF805460028D4D10320B5
:10412000FFF76CF884B91C4B1B7843B901231A4A7A
:104130001370012B05D02046FEF7F2F9C4E72346A1
:10414000F5E7FEF791F8F6E7012C07D0022C12D024
:10415000032C19D0042C1AD00126B5E70F4A137886
:104160000133DBB21370022B02D9134600221A70FE
:10417000FEF77AF8DFE70A4B1B7803B90125084BF5
:104180001D70FEF771F8D6E7FFF7F6F8D3E7FFF7F3
:1041900073F9D0E770BD00BF200000201900002097
:1041A0000402002030B585B0FDF736FB002108463B
:1041B000FDF7A0F8FCF790FF01210020FDF79AF829
:1041C00000248DF808408DF809408DF80A4001253B
:1041D0008DF80B508DF80C4002AA21462846FCF7BA
:1041E000FDFC02AA29462846FCF7F8FC02AA032196
:1041F0002846FCF7F3FC8DF800508DF801408DF84F
:1042000002408DF803408DF804406A460621284696
:10421000FCF7E4FC224606212846FCF750FDFFF798
:1042200033F8FCF793FE354B1D70FEF759FA11E099
:10423000431E334A137018E0314B1978FEF73AFBEE
:104240000120FEF7DBFFFEF70FF803210120FEF748
:10425000DFFF20B300210120FEF7DAFF70B9284B01
:1042600018780028E4D104221A70254B1978FEF73B
:1042700021FB0020FEF7C2FFFDF7F6FF01210846F3
:10428000FEF7C6FF0028E0D11D4A1078431CDBB2C0
:104290001370042BD0D9134600221A70CCE70320E8
:1042A000FEF7ACFFFEF700F8164B00221A70144B15
:1042B0001B787BB1012B12D0022B15D0032B18D009
:1042C000042BC7D10020FFF73FF9FFF7EBFEFEF705
:1042D00007FABFE7FFF758F9FEF702FABAE7FFF768
:1042E00067FAFEF7FDF9B5E7FFF7FEFBFEF7F8F911
:1042F000B0E7FFF717FEFEF7F3F9ABE7080200207F
:104300000D0200200902002053B94AB9002908BF54
:1043100000281CBF4FF0FF314FF0FF3000F072B9A2
:10432000ADF1080C6DE904CE00F006F8DDF804E00C
:10433000DDE9022304B070472DE9F047089E0446EA
:104340008846002B4BD18A42154667D9B2FA82F2D1
:104350004AB1C2F1200701FA02F320FA07F79540AB
:1043600047EA030894404FEA154E230CB8FBFEF7CA
:104370001FFA85FC0EFB178843EA084307FB0CF184
:10438000994209D9EB1807F1FF3080F01B8199425F
:1043900040F21881023F2B445B1AA4B2B3FBFEF03B
:1043A0000EFB103344EA034400FB0CFCA44509D97E
:1043B0002C1900F1FF3380F00781A44540F20481FD
:1043C00002382C4440EA0740A4EB0C0400271EB13D
:1043D000D4400023C6E900433946BDE8F0878B424C
:1043E00009D9002E00F0EB800027C6E9000138460D
:1043F0003946BDE8F087B3FA83F7002F47D18B42E7
:1044000002D3824200F2FA80841A61EB0303012096
:104410009846002EE0D0C6E90048DDE702B9FFDE8D
:10442000B2FA82F2002A40F08F80491B4FEA154E03
:104430001FFA85F80127B1FBFEFC230C0EFB1C11B3
:1044400043EA014308FB0CF1994207D9EB180CF140
:10445000FF3002D2994200F2CD808446591AA3B2AD
:10446000B1FBFEF00EFB101443EA044408FB00F815
:10447000A04507D92C1900F1FF3302D2A04500F264
:10448000B6801846A4EB080440EA0C409FE7C7F149
:10449000200CBB4022FA0CFE4EEA030E01FA07F490
:1044A00020FA0CF521FA0CF34FEA1E482543B3FB22
:1044B000F8F92C0C08FB19331FFA8EFA44EA03436F
:1044C00009FB0AF49C4202FA07F200FA07F10BD941
:1044D0001EEB030309F1FF3080F087809C4240F21D
:1044E0008480A9F1020973441B1BADB2B3FBF8F041
:1044F00008FB103345EA034400FB0AFAA24508D939
:104500001EEB040400F1FF336BD2A24569D90238D7
:10451000744440EA0940A0FB0289A4EB0A044C451C
:10452000C2464B4654D351D0002E69D0B1EB0A0598
:1045300064EB030404FA0CFCFD40FC404CEA050566
:10454000C6E90054002747E7C2F1200320FA03F729
:10455000954001FA02F021FA03F34FEA154E384371
:10456000010CB3FBFEF71FFA85F80EFB173341EA87
:10457000034107FB08F38B4204FA02F407D96918D8
:1045800007F1FF3C2FD28B422DD9023F2944CB1A91
:1045900081B2B3FBFEF00EFB103341EA034100FB96
:1045A00008F38B4207D9691800F1FF3C17D28B4200
:1045B00015D902382944C91A40EA07473BE737466C
:1045C000304609E70746E7E61846FBE64145ABD229
:1045D000B8EB020A69EB0E0201381346A4E7604605
:1045E000E9E7184695E76746D1E781467CE7023858
:1045F0002C4447E7ACF1020C2B442FE7384608E780
:104600003746E9E6704700BF014B1868704700BFA6
:104610002400002030B5141E05469BB0184605DA6C
:104620008B232B604FF0FF301BB030BD4FF4027373
:10463000ADF80C3014BF04F1FF3323460293059309
:104640004FF6FF7300910491ADF80E3002461E9BA9
:104650006946284600F072F8431CBCBF8B232B60D0
:10466000002CE1D0009B00221A70DDE707B5009313
:1046700013460A46014603480068FFF7CBFF03B024
:104680005DF804FB240000202DE9F0478E689E426F
:1046900082460C469046994637D88A8912F4906F24
:1046A00031D0256809696F1A6569022305EB450554
:1046B00095FBF3F509F101033B449D4238BF1D46CC
:1046C000530530D5294600F07DFB064650B90C2332
:1046D000CAF80030A38943F04003A3814FF0FF30B4
:1046E000BDE8F0873A46216900F0FAFAA38923F47D
:1046F000906343F08003A381266165613E44ED1B16
:104700002660A5604E464E4500D94E46324641468B
:10471000206800F0F0FAA3689B1BA36023681E4486
:1047200026600020DCE72A4600F0A6FB06460028AB
:10473000E2D12169504600F0F7FAC8E72DE9F04FC1
:104740009DB0804603938B891D060C4616460FD5F7
:104750000B696BB9402100F035FB2060206128B95E
:104760000C23C8F800304FF0FF30C7E040236361EE
:104770000023099320238DF8293030238DF82A3027
:104780004FF0010B37463D4615F8013B0BB1252B89
:104790003ED1B7EB060A0BD053463246214640467F
:1047A000FFF772FF013000F0A480099B5344099386
:1047B0003B78002B00F09D8000234FF0FF32CDE9C5
:1047C0000523049307938DF853301A932F4605223F
:1047D00017F8011B4F4800F033FA049BD0B9D906F3
:1047E00044BF20228DF853201A0744BF2B228DF896
:1047F00053202A782A2A15D0079A2F4600200A2506
:10480000394611F8013B303B092B4DD9B8B10FE0C7
:104810002F46B8E73F4A801A0BFA00F0184304907D
:104820003D46D3E7039A111D12680391002A01DB6C
:10483000079204E0524243F00203079204933B784C
:104840002E2B0CD17B782A2B33D1039B1A1D1B688E
:104850000392002BB8BF4FF0FF33023705932E4D64
:1048600039780322284600F0EBF938B14023401B89
:1048700003FA00F0049B0343013704933978274877
:104880008DF8281006227E1C00F0DAF9002838D0B6
:10489000234B13BB039B073323F007030833039316
:1048A000099B4B4409936DE705FB023201200F463B
:1048B000A6E700230137059319460A25384610F864
:1048C000012B303A092A03D9002BC8D00591C6E73D
:1048D00005FB012101230746F0E703AB00932246C5
:1048E000104B04A94046AFF30080B0F1FF3F814672
:1048F000D6D1A3895B063FF536AF09981DB0BDE858
:10490000F08F03AB00932246064B04A9404600F00B
:1049100081F8EAE7B8540008BE540008C254000801
:1049200000000000894600082DE9F04791461F4627
:104930008A680B69DDF820809342B8BF1346C9F836
:10494000003091F8432006460C4612B10133C9F8F5
:1049500000302368990642BFD9F800300233C9F805
:104960000030256815F0060507D104F1190AE3683F
:10497000D9F800209B1AAB4228DC94F84330226817
:10498000003318BF012392062DD404F143023946A7
:104990003046C047013020D02368E568D9F80020B0
:1049A00003F00603042B08BFAD1AA36822690CBFED
:1049B00025EAE57500259342C4BF9B1AED184FF018
:1049C00000091A344D451AD1002008E0012352464F
:1049D00039463046C047013003D14FF0FF30BDE8C3
:1049E000F0870135C3E7E1185A1C302081F84300F5
:1049F000224494F8451082F843100233C5E701239E
:104A0000224639463046C0470130E6D009F1010957
:104A1000D8E700002DE9F04301F1430C0C46097E74
:104A200085B06E291746064698460C9A00F0B3806A
:104A300022D8632936D00AD8002900F0B980582935
:104A400000F0838004F1420584F8421032E06429CA
:104A500001D06929F6D120681368050603F1040125
:104A60002AD51B681160002B03DA2D225B4284F8E3
:104A700043206F480A2239E0732900F09D8008D84E
:104A80006F2920D07029DDD1236843F020032360F3
:104A900003E0752917D07829D4D1782384F84530DC
:104AA000644855E01368191D1B68116004F1420544
:104AB00084F8423001238CE01B68116010F0400F35
:104AC00018BF1BB2CFE713682568181D10602806B1
:104AD00001D51B6802E06806FBD51B8854486F2986
:104AE00014BF0A220822002184F843106568A560DB
:104AF000002DC0F29580216821F004012160002B77
:104B00003DD1002D40F08E806546082A0BD12368E8
:104B1000DB0708D5236962689A42DEBF302305F8B7
:104B2000013C05F1FF35ACEB05032361CDF80080B6
:104B30003B4603AA21463046FFF7F6FE01304DD131
:104B40004FF0FF3005B0BDE8F083394884F84510D8
:104B5000136821681D1D1B6815600A060BD5CA075E
:104B600044BF41F0200121601BB9226822F02002DD
:104B700022601022B7E74D0648BF9BB2EFE76546BB
:104B8000B3FBF2F102FB1133C35C05F8013D0B46A8
:104B90000029F5D1B9E7136825686169181D10600F
:104BA00028061B6801D5196002E06A06FBD519804A
:104BB000002323616546B9E71368191D11601D685C
:104BC00062680021284600F03BF808B1401B606095
:104BD00063682361002384F84330A7E723692A46EA
:104BE00039463046C0470130AAD023689B0713D40A
:104BF000E068039B9842B8BF1846A3E701234A46E2
:104C000039463046C04701309AD00135E368039AEF
:104C10009B1AAB42F2DCEBE7002504F11909F5E73A
:104C2000002BACD1037884F8423004F142056CE7E4
:104C3000C9540008DA540008000000000000000019
:104C400001F0FF01102A2BDB10F0070F08D010F83D
:104C5000013B013A8B422DD010F0070F42B3F6D141
:104C6000F0B441EA012141EA014122F007047FF05A
:104C700000070023F0E80256083C85EA010586EAB1
:104C8000010685FA47F5A3FA87F586FA47F6A5FAED
:104C900087F68EB9EED1F0BC01F0FF0102F00702F9
:104CA00032B110F8013B013A83EA010313B1F8D1A4
:104CB0000020704701387047002D06BF3546033885
:104CC000073815F0010F07D1013015F4807F02BFBE
:104CD000013015F4C03F0130F0BC0138704700BF0F
:104CE00010B5431E0A44914200D110BD11F8014B8A
:104CF00003F8014FF7E7884210B501EB020307D82C
:104D0000421E99420AD011F8014B02F8014FF8E710
:104D10008342F5D98118D21AD34200D110BD13F8BD
:104D2000014D01F8014DF7E738B50546002945D09A
:104D300051F8043C0C1F002BB8BFE41800F0D2F867
:104D40001F4A1368104633B9636014602846BDE8F3
:104D5000384000F0C8B8A3420CD9216862189342C9
:104D600004BF1A685B68636004BF52182260046065
:104D7000ECE713465A680AB1A242FAD919685818E2
:104D8000A0420BD120680144581882421960DDD13D
:104D9000106852685A6001441960D7E702D90C23A1
:104DA0002B60D3E7206821188A4204BF116852683B
:104DB000626004BF091821605C60C7E738BD00BFAE
:104DC0001002002070B5CD1C25F0030508350C2D10
:104DD00038BF0C25002D064601DBA94203D90C2360
:104DE0003360002070BD00F07DF8214A1468214630
:104DF00091B9204C23681BB9304600F063F820605D
:104E00002946304600F05EF8431C24D10C23336061
:104E1000304600F068F8E4E70B685B1B18D40B2BF6
:104E20000FD90B60CD50CC18304600F05CF804F17F
:104E30000B00231D20F00700C31AD3D05A42E250C2
:104E4000D0E78C424B6816BF636013600C46EBE7FB
:104E50000C464968CCE7C41C24F00304A04205D0EA
:104E6000211A304600F02EF80130CFD02560DBE764
:104E70001002002014020020F8B5074614460E4622
:104E800021B91146BDE8F840FFF79CBF22B9FFF7F2
:104E90004BFF25462846F8BD00F026F8A0420FD269
:104EA00021463846FFF78EFF05460028F2D03146EE
:104EB0002246FFF715FF31463846FFF735FFE9E791
:104EC0003546E7E738B5064C00230546084623601B
:104ED000FBF7A8FA431C02D1236803B12B6038BD4D
:104EE000180200207047704751F8043C181F002B2F
:104EF000BCBF0B58C0187047537461636B20667257
:104F0000616D653A0A000000205230203D202025C6
:104F10003038580A00000000205231203D20202562
:104F20003038580A00000000205232203D20202551
:104F30003038580A00000000205233203D20202540
:104F40003038580A0000000020523132203D202520
:104F50003038580A00000000204C52203D20202507
:104F60003038580A00000000205043203D20202502
:104F70003038580A0000000020505352203D2025B0
:104F80003038580A000000004653522F4641523A2A
:104F90000A0000002043465352203D20202530388F
:104FA000580A00002048465352203D202025303822
:104FB000580A00002044465352203D202025303816
:104FC000580A00002041465352203D202025303809
:104FD000580A0000204D4D464152203D20253038D2
:104FE000580A00002042464152203D2020253038FA
:104FF000580A00004D6973630A000000204C522FCC
:105000004558435F52455455524E3D20253038583F
:105010000A0000005B486172644661756C745D0A49
:10502000000000005B4275734661756C745D0A0098
:105030005B55736167654661756C745D0A000000BD
:105040000000000000000000010203040607080938
:1050500080A4C4DEF0FAFEFCFFFCF6ECDCC8B098DD
:105060008068503824140A0400040A142438506854
:105070003C42A581A599423C001C22405E42241876
:105080001818187E181818003C42A58181A5423CCA
:10509000183C7E3C181C181000002466FF66240093
:1050A000785400087C540008805400088454000898
:1050B000885400089054000894540008985400083C
:1050C0009C540008A0540008A4540008A8540008E8
:1050D000B0540008B4540008524553455420414C84
:1050E0004C00000053434F5245533F00544F204360
:1050F0004F4E4649524D0000524553455421000041
:105100003E204D415448205155495A0020204D41E0
:105110005448205155495A003E204D454D4F525953
:105120000000000020204D454D4F52590000000066
:105130003E20534E414B45002020534E414B4500ED
:105140003E204D55534943204D414B4552000000F0
:1051500020204D55534943204D414B4552000000FE
:105160003E2053455454494E475300002020534598
:105170005454494E4753000047414D494E4720483B
:10518000554200004D4154483A0000004D454D3A0B
:105190000000000030000000534E414B453A000033
:1051A0004D415448205155495A00000055502F4454
:1051B0004F574E3A204D4F564500000053454C4541
:1051C00043543A2043484F4F534500003F000000EE
:1051D0004D454D4F525900004D4F5645533A000032
:1051E00050414952533A000053454C4543543A20EC
:1051F000464C495000000000454153590000000052
:1052000048415244000000004D45440054465400BB
:10521000424F5448000000003E20534F554E44007A
:105220002020534F554E44004F4E00004F4646003D
:105230003E20444946464943554C5459000000001D
:105240002020444946464943554C5459000000002B
:105250003E20444953504C4159000000202044490D
:1052600053504C41590000003E20484947482053C4
:10527000434F5245530000002020484947482053DF
:10528000434F5245530000003E20524553455420A1
:1052900053434F524553000020205245534554205C
:1052A00053434F52455300003E204241434B0000C0
:1052B00020204241434B000053455454494E47532C
:1052C000000000000103020403010402594F5520AD
:1052D00057494E21000000004D55534943204D4190
:1052E0004B45520055502F444F574E3A204E4F5485
:1052F0004500000053454C4543543A20504C415919
:1053000000000000484F4C443A20455849540000E2
:10531000000000000000081422003E5149453E00F4
:10532000427F400042615149462141454B311814AA
:10533000127F1027454545393C4A494930017109DA
:1053400005033649494936064949291E7E1111117E
:105350007E7F494949363E414141227F4141221CDD
:105360007F494949417F090909013E4149497A7FFD
:105370000808087F00417F41002040413F017F082D
:105380001422417F404040407F0204027F7F040896
:10539000107F3E4141413E7F090909063E415121AE
:1053A0005E7F09192946464949493101017F0101BA
:1053B0003F4040403F1F2040201F7F2018207F6338
:1053C0001408146307087008076151494543000039
:1053D000434F52524543540057524F4E470000002E
:1053E00046494E414C2053434F5245004F5554209F
:1053F0004F4620380000000053454C45435420459B
:1054000058495400484947482053434F5245530098
:105410004D454D4F52593A00534E414B4500000007
:1054200053434F52453A0000555020524947485483
:105430002020444F574E204C4546540047414D458F
:10544000204F56455200000053454C4543543A20E6
:10545000455849540000000057454C434F4D450006
:10546000342047414D455300505245535320534536
:105470004C45435400000000444F34005245340072
:105480004D49340046413400534F4C340000000075
:105490004C41340053493400444F350052453500E7
:1054A0004D49350046413500534F4C350000000052
:1054B0004C41350053493500232D302B2000686CBA
:1054C0004C00656667454647003031323334353627
:1054D0003738394142434445460030313233343560
:0B54E00036373839616263646566008E
:0854EC004CEEFF7F01000000FF
:1054F4007856341294000020000000000024F400C8
:10550400E1455F08A0008000FF01FFFF3930000083
:1055140001FFFFFF28000020000000000000000041
:105524000000000000000000000000000000000077
:105534000000000000000000000000000000000067
:105544000000000000000000000000000000000057
:105554000000000000000000000000000000000047
:105564000000000000000000000000000000000037
:0C55740000000000000000003254769897
:040000050800019559
:00000001FF
